:020000040800F2
:1000000050180020AD0200086F4D0008E7420008BC
:100010006D4D000843090008096800080000000051
:100020000000000000000000000000002958000847
:100030002D0B0008000000007B5400082B5800081E
:10004000CB020008CB020008CB020008CB0200085C
:10005000CB020008CB020008CB020008CB0200084C
:10006000CB020008CB020008CB020008CB0200083C
:10007000CB020008CB020008CB020008CB0200082C
:10008000CB020008CB020008CB020008CB0200081C
:10009000CB020008CB020008CB020008CB0200080C
:1000A000CB020008CB020008CB020008CB020008FC
:1000B000CB020008CB020008CB020008CB020008EC
:1000C000CB020008CB020008CB020008CB020008DC
:1000D000CB02000805660008CB020008CB0200082E
:1000E000CB020008CB02000800000000CB02000891
:1000F000CB020008CB020008CB020008CB020008AC
:10010000CB020008CB020008CB020008CB0200089B
:10011000CB020008CB020008CB020008CB0200088B
:10012000CB020008CB020008CB020008CB0200087B
:10013000CB020008CB020008CB020008CB0200086B
:10014000CB020008CB020008000000000000000005
:10015000CB020008CB020008CB020008CB0200084B
:10016000CB020008CB020008CB020008CB0200083B
:10017000CB020008CB020008CB0200080000000000
:10018000CB020008CB020008CB020008CB0200081B
:10019000CB020008CB020008CB020008CB0200080B
:1001A000CB020008CB020008CB020008CB020008FB
:1001B000CB020008CB020008CB020008CB020008EB
:1001C000CB020008CB020008CB020008CB020008DB
:1001D000CB020008CB020008CB020008CB020008CB
:1001E000CB020008CB020008CB020008CB020008BB
:1001F000CB020008CB020008CB020008CB020008AB
:10020000CB020008CB020008CB020008CB0200089A
:10021000CB020008CB020008CB020008CB0200088A
:10022000CB020008CB020008CB020008D90A000864
:10023000CB020008CB020008CB020008CB0200086A
:10024000CB020008CB020008CB020008CB0200085A
:10025000CB020008CB020008CB020008CB0200084A
:10026000CB020008CB020008CB020008CB0200083A
:10027000CB020008CB020008CB020008CB0200082A
:10028000CB020008CB020008CB02000800000000EF
:10029000CB020008CB020008DFF80CD000F0FCF81D
:1002A000004800472588000850180020074880476C
:1002B0000748804707480047FEE7FEE7FEE7FEE7FE
:1002C000FEE7FEE7FEE7FEE7FEE7FEE7410C00087B
:1002D000D9580008990200082DE9F05F0546002072
:1002E00092469B4688460646814640241BE02846A7
:1002F00041464746224600F069F853465A46C01A1E
:10030000914110D311461846224600F050F82D1A9C
:1003100067EB01084F4622460120002100F047F814
:1003200017EB00094E41201EA4F10104DFDC484612
:1003300031462A464346BDE8F09F40EA01039B0749
:1003400003D009E008C9121F08C0042AFAD203E04A
:1003500011F8013B00F8013B521EF9D27047D2B2AE
:1003600001E000F8012B491EFBD270470022F6E79E
:1003700010B513460A4604461946FFF7F0FF20461B
:1003800010BD30B50B46014600202022012409E0B3
:1003900021FA02F59D4205D303FA02F5491B04FA3E
:1003A00002F52844151EA2F10102F1DC30BD202A1D
:1003B00004DB203A00FA02F1002070479140C2F1BC
:1003C000200320FA03F3194390407047202A04DBEE
:1003D000203A21FA02F00021704721FA02F3D040BE
:1003E000C2F1200291400843194670470029A8BF76
:1003F0007047401C490008BF20F00100704710B44E
:10040000B0FA80FC00FA0CF050EA010404BF10BC02
:10041000704749B1CCF1200421FA04F411FA0CF12F
:1004200018BF012121430843A3EB0C01CB1D4FEA68
:1004300000614FEA102042BF002010BC704700EB63
:10044000C35010440029A4BF10BC7047401C490091
:1004500008BF20F0010010BC704710B541000CD05F
:10046000C0F3C751962908DC7E2909DC06DB41026E
:1004700004D000F0004040F07E5010BD002010BDC0
:10048000C1F19604C4F1200100FA01F1E040FFF748
:10049000ADFFA04010BD0000064C074D06E0E0682F
:1004A00040F0010394E8070098471034AC42F6D3BB
:1004B000FFF7F6FE3CD20E086CD20E0870B58C1811
:1004C00010F8015B15F0070301D110F8013B2A1168
:1004D00006D110F8012B03E010F8016B01F8016B55
:1004E0005B1EF9D12B0705D40023521E0DD401F851
:1004F000013BFAE710F8013BCB1A921C03E013F81A
:10050000015B01F8015B521EF9D5A142D8D300204E
:1005100070BD01F09DBD70472DE9FF4F83B03B4892
:100520001D7B1C7D039E2D0493F81890240493F8E2
:100530001780C6EBC60C1E7FE34650F82C7000EB0C
:100540008B0A587FDFF8C4C007FB021706EB0020B8
:10055000DE7A997AACF1A80CDAF8082001EB0621D2
:1005600002EB820606EBC2065A7B0CEB8606DAF833
:1005700010C005EB02659A7C01EB050ED97C5D7D10
:10058000F66D02EB0122997D04EB05645D7E144457
:100590004FEA094201EB082802EB056507FB0C69ED
:1005A00000220292A0F12001082908EB050601D2E1
:1005B000002506E0A0F11001082901D2022500E083
:1005C0000125711E03EB0E026143C0080190002754
:1005D00001FB0020804612E023464A46014603986C
:1005E000009504F0F5F809487F1CDAF8102050F85F
:1005F0002B1001FB0299019904FB11808046B74240
:10060000EAD3029807B0BDE8F08F0000C8110020BF
:100610002DE9FC411C461346134AC0EBC0050F19D7
:10062000DDF820E002EB850652F82520B5689742F8
:100630000D4F02FB031305EB850C36690CEBC5056A
:10064000A7F1A80707EB8505ED6D06FB035500D95B
:10065000541A00212246CDE9001E0123294604F048
:10066000F9F80020BDE8FC81C81100202DE9FC410B
:10067000144DC0EBC007DFF84CC005EB8704DDF874
:1006800020E0ACF1A80C55F82750A66805FB021134
:1006900006EB860707EBC607266964680CEB87073D
:1006A00002EB030CA445FF6D06FB017100D9A31AF0
:1006B0006D1E0122CDE9005E04F0CCF80020BDE8FB
:1006C000FC810000C81100202DE9FF4F8B46134923
:1006D00000261D460098DDE90D7AC0EBC00001EB55
:1006E000800915E00298002400EB06080DE0E87888
:1006F0000BEB04012B68424660F31F63009800F087
:100700009FF8D9F81000641C0544BC42EFD3761C56
:100710005645E7D304B00020BDE8F08FC811002093
:100720002DE9FC41114EC0EBC0051C4606EB8503CC
:10073000DDE9087C56F82550A83ED3F808E01B698F
:1007400005FB02110EEB8E0202EBCE022D1B06EB17
:100750008202D26D03FB0121CDE9005C3B462246BB
:1007600004F078F80020BDE8FC810000C8110020EA
:1007700000284FF0000001D0801E7047014AD26867
:100780000A607047C811002070B50F4DC0EBC00063
:100790000D4EA5F1A80405EB800556F82000AD68C4
:1007A00002FB001005EB850606EBC50104EB810199
:1007B0008A6CC96D22B131F810001860002070BD3C
:1007C00051F82000F9E70000C8110020144810B5C6
:1007D00086B0016841F04001016000680322114CBD
:1007E000082100F0400005900120CDE90202CDE98A
:1007F00000106946204601F005FB00222046082132
:1008000001F01AFC142001F0EBFA01222046082125
:1008100001F012FC0A2001F0E3FA06B010BD00005E
:10082000E04402580018025800284FF0000001D0A0
:10083000801E7047014A916070470000C811002077
:1008400070B50E4DC0EBC0000C4EA5F1A80405EB31
:10085000800556F82000AD6802FB001005EB850608
:1008600006EBC50104EB81018A6CC96D1AB121F850
:100870001030002070BD41F82030FAE7C811002088
:10088000F0B504461248002587B0016841F4807134
:100890000160006803220F4E00F480700E4F059037
:1008A000012056F82410CDE90010CDE9020257F8D6
:1008B0002400694601F0A6FA36F82410012257F800
:1008C000240089B201F0B8FB07B02846F0BD000053
:1008D000E0440258141D0A087C0000207047000004
:1008E00070B510B16FF0010070BD124804F0E6FE63
:1008F000104804F0D7F910B14FF0FF3070BD0D482B
:100900000021082240F20364F838302596010323C1
:10091000C0E90241C0E90415C0E90616C0E9002398
:100920000146F83003F0F4FC0028E7D06FF0040033
:1009300070BD0000DC120020002010B5FFF7CEFFD4
:1009400010BDFEE72DE9F8431D4C03EBC307064637
:10095000DDE9088907EB0310C8F5487300256560D9
:1009600002EB4010C4E90253FF2325616561256253
:10097000C4E91353A5646564A565124B65652360DE
:1009800001EB80040E4800F069FA002815D10C48EC
:10099000012100F0FFF900280FD109484346224603
:1009A0003146CDF8009000F025FB002805D1BDE8C8
:1009B000F8430348642100F096BABDE8F8830000CC
:1009C000980E002000100052F0B5059C44EA034543
:1009D00003685C6C04F040442C435C640368DA6395
:1009E0004268B2F5403F05D00068B2F5802F37D09D
:1009F000C160F0BD01F47F42856801F47F042243A9
:100A000001F07F4301F47F0701F47F46CCB2BDB112
:100A1000012D16D001F47F02C1F3C401D20C022DC6
:100A200011D0032D14D0310B3A0D09011B0F41EAEF
:100A30000222210942EA03320A4300688263F0BDC0
:100A40001A432243F9E7B30A5B0143EAC222F3E700
:100A5000F40ADB0F640144EA822242EAC332EBE784
:100A60004161F0BD10B542EA811141EA0321029CC7
:100A700041EA0441C16610BD3EB50625002400953B
:100A8000CDE901120146044801F0EEF808B16FF01B
:100A9000070420463EBD00009C1000207CB5012BC1
:100AA0004FF000046FF0070508D8D25C0B460146F2
:100AB00008480092152201F05FF906E0CDE9001226
:100AC00039220146034801F06BF800B12C4620465C
:100AD0007CBD00009C100020014800F0E6BE000034
:100AE0009C1000202DE9F04798461646894604469A
:100AF000DDF820A001F0ACFA4FF47A77054607E064
:100B000001F0A6FA401BB84202D90320BDE8F087E5
:100B10002068406FC007F3D0226846EA891141EA95
:100B2000082141EA0A40D0660020EFE77047000044
:100B30002DE9F74FDFF800A10025A6B00DF1640BF9
:100B4000DAF80C100AEB411080688488C788E01D31
:100B5000814620F00700061B68E000BF4FEAD9017C
:100B60002898012901FB050015D0022915D001782C
:100B700042788378080440EA02201843DAF80C200F
:100B80000AEB4212D16902294FF0000108D001237B
:100B90000DF1040E3EE00078F0E7008840BAEDE782
:100BA0004FF0010E1AE000BFA4EB010CB444ACF10D
:100BB000010C0EFA0CF3034201D0136800E05368F5
:100BC000C3F30728C3F3C40C4FEA9808DB0C4CEAC4
:100BD000481C4CEAC32C2BF811C0491CA142E3D39A
:100BE000279919AA2346CDF800E0481C279019E060
:100BF000A4EB010CB444ACF1010C03FA0CFC1CEAAC
:100C0000000F02D0D2F8008001E0D2F804804EF844
:100C10002180491CA142EBD32799724600932346B9
:100C2000481C2790269805F069FD6D1CBD4295D3A0
:100C300029B0BDE8F08F00001013002072B6FEE767
:100C40007047F0B5D1E90843CD690A68C2B10268BE
:100C5000254322F4F84213431D430560D1E90125E1
:100C6000D1E903364C692A434568334389691A43FD
:100C7000EB0B2243DB030A431A4342600020F0BD22
:100C8000D1E9012ED1E9036CD1E9057142EA0E02E6
:100C900046EA0C0632433A430A4301682A43224398
:100CA0001A436FF30E010A430260E7E7426943F615
:100CB000FE739A4342EA410141610020704770B5DA
:100CC00091E81C00C9686FF01F0506691A4305EB1F
:100CD000441444EA41210A4306EA45431A430261A7
:100CE000002070BD2DE9F04F8B8A6FF00F05264C68
:100CF0004FF07F4BD1F80C9004EB03536FF0FF04DF
:100D00004FEA042A1AB386684FEA09321F4FA2F548
:100D100080521A433E4032438260D1E900278E68F8
:100D2000521E05EB07150F8A2A43C56804EB0624FB
:100D30000E7E0AEB074322431A430BEB06610A437C
:100D400005F070431A43C2600020BDE8F08F91E8BF
:100D500004110F4E521E0F8A05EB08152A4304EBAF
:100D60000C2C06EB09350E7E42EA0C022A438568FC
:100D70000AEB074422431A430BEB06610A4305F0D2
:100D800070431A438260DFE70000F0FFFF0F0FFFA0
:100D900000F0FFFFF0B590F86020012A22D0C1EBEF
:100DA000C102012780F86070022380F8613000EBF7
:100DB0008202284D138F168EB2F83CC0D46A1B05F0
:100DC000283244EA064643EA4C530A2C46EA030614
:100DD0000AD0092C08D0137B46EA036349B10B2CD7
:100DE0001AD01DE00220F0BDD36803F07F433343E7
:100DF000F4E701684C6AAC431C434C620168136819
:100E00008B6151680A2901D009291BD1D168026878
:100E100021F07F41916215E0118B0F4D43EA814330
:100E20000168CC69AC431C43CC61016813680B6159
:100E300051680A2901D0092904D1D168026821F03A
:100E40007F411162002180F8617080F860100846CF
:100E5000F0BD00000F0033FF0F003FFF2DE9F04110
:100E6000040004D094F86100002518B107E00120C7
:100E7000BDE8F081204684F8605000F033F8184E49
:100E8000022084F861000123D4E90010D4F81CC0CA
:100E900040F207120F6840EA0C0037403843086000
:100EA0002068A769A168466B394396433143416383
:100EB0002068E268016C6FF30F0111430164206840
:100EC000218AA28A466B090541EA425126F4401262
:100ED00011434163656684F861300020C8E7000073
:100EE000BFFFF8FF70472DE9F843002604460427AA
:100EF0000D4600964FF0030800680068C00726D032
:100F000001F0A6F881461EE04068009010F0210F25
:100F100010D00098800603D5606E40F00200606635
:100F20000098C00703D0606E40F001006066216841
:100F3000212035E0681C06D001F08AF8A0EB0900FA
:100F4000A8424DD8A5B3206841688907DCD5206840
:100F5000C169406A01F0200100F02000084335D04B
:100F600001F076F881462DE04068009010F0290FDE
:100F70001FD00098000703D5606E40F00400606643
:100F80000098800603D5606E40F00200606600980D
:100F9000C00703D0606E40F0010060662168292020
:100FA000886084F86170012084F86060BDE8F8838F
:100FB00016E0681C06D001F04BF8A0EB0900A8422F
:100FC0000ED86DB120684168C906CDD522681221BE
:100FD0000120916084F86100002084F86060E5E7FA
:100FE000616E84F8606041F02001616684F8618080
:100FF0000320DBE7F8B50446069894F86050012D0D
:1010000010D0012684F86060022584F861500090B9
:101010002046FFF7D9FC2068016841F0010101601A
:101020000020F8BD0220F8BD2DE9F84F044601F07C
:101030000FF800903CB194F83500022806D08021CA
:1010400061650020E4E00120BDE8F88FC74DC74E80
:10105000C649183520683036DFF81483DFF814935A
:101060008842DFF814A3DFF814B328D0A84226D0B2
:10107000B04224D0404522D0484520D050451ED013
:1010800058451CD0BD4A1832904218D0BC4A9042F4
:1010900015D0BB4A1832904211D0B94A3032904232
:1010A0000DD0B74A4832904209D0B54A60329042DA
:1010B00005D0B34A7832904201D0B14A90320268EA
:1010C00022F001020260206888422ED0A8422CD073
:1010D000B0422AD0404528D0484526D0504524D09B
:1010E000584522D0A54A183290421ED0A44A9042B8
:1010F0001BD0A34A1832904217D0A14A30329042F6
:1011000013D09F4A483290420FD09D4A603290429D
:101110000BD09B4A7832904207D0994A9032904245
:1011200003D0974AA832904209D1026822F01E02E9
:1011300002602068426922F08002426103E0026896
:1011400022F00E0202602768884938468F424DD04F
:10115000A8424BD0B04249D0404547D0484545D041
:10116000504543D0584541D08449183188423DD03C
:10117000834988423AD082491831884236D0804922
:101180003031884232D07E49483188422ED07C4965
:10119000603188422AD07A497831884226D078490D
:1011A0009031884222D07649A83188421ED07549B4
:1011B00088421BD073491431884217D071492831B5
:1011C000884213D06F493C3188420FD06D4950316D
:1011D00088420BD06B496431884207D06949783125
:1011E000884203D067498C318F4214D1206E016848
:1011F00021F4807101600EE000F02AFF0099401A8E
:10120000052808D9202262650321002084F83510C2
:1012100084F8340017E73868C007EDD1534A01213C
:10122000206890422ED0A8422CD0B0422AD040450F
:1012300028D0484526D0504524D0584522D04F4B81
:10124000183398421ED04E4B98421BD04C4B18334B
:10125000984217D04A4B3033984213D0484B48330A
:1012600098420FD0464B603398420BD0444B7833B2
:10127000984207D0424B9033984203D0404BA8335A
:10128000984208D194F85C703F23A06D07F01F07C7
:10129000BB40836007E094F85C30A06D03F01F034F
:1012A00001FA03F34360206890424DD0A8424BD02E
:1012B000B04249D0404547D0484545D0504543D03D
:1012C000584541D02D4A183290423DD02C4A904288
:1012D0003AD02B4A1832904236D0294A30329042C6
:1012E00032D0274A483290422ED0254A603290426E
:1012F0002AD0234A7832904226D0214A9032904216
:1013000022D01F4AA83290421ED01E4A90421BD0C3
:101310001C4A1432904217D01A4A2832904213D0F5
:10132000184A3C3290420FD0164A503290420BD0AD
:10133000144A6432904207D0124A7832904203D065
:10134000104A8C3290420BD1D4E919024260E06E0F
:1013500030B1026822F480720260D4E91C0242605B
:10136000002084F8351084F834006DE61000024047
:10137000580002407000024088000240A000024075
:1013800010040240085402582DE9F05F28B190F88B
:101390003510022904D0802141650120BDE8F09F6D
:1013A000764A764BDFF8D4C1183201683033744C7A
:1013B000DFF8D0B16145744D744E754FDFF8D4E15C
:1013C000DFF8D4A1DFF8D49131D091422FD09942E7
:1013D0002DD0A1422BD0594529D0A94227D0B142C6
:1013E00025D0B94223D0DFF8AC81A8F17808414577
:1013F0001DD0DFF8A081A8F16008414517D0DFF8C3
:101400009481A8F14808414511D0DFF88881A8F1FE
:10141000300841450BD0DFF87C81A8F11808414520
:1014200005D0714503D0514501D049452AD14FF02F
:10143000040880F8358061451FD091421DD0994243
:101440001BD0A14219D0594517D0A94215D0B1429D
:1014500013D0B94211D04F48783881420DD04D4851
:101460006038814209D04B484838814205D049480C
:101470003038814201D047481838086820F0010010
:10148000086078E0D1F8008028F00108C1F80080F9
:101490000168D1F8008028F00E08C1F800800168CA
:1014A000614546D0914244D0994242D0A14240D0B9
:1014B00059453ED0A9423CD0B1423AD0B94238D089
:1014C000344A783A914234D0324A603A914230D02C
:1014D000304A483A91422CD02E4A303A914228D094
:1014E0002C4A183A914224D0714522D0514520D03F
:1014F00049451ED02A4A91421BD0294A14329142B2
:1015000017D0274A2832914213D0254A3C329142C3
:101510000FD0234A503291420BD0214A643291427B
:1015200007D01F4A7832914203D01D4A8C32914233
:1015300018D1026E0121136823F48073136090F8B0
:101540005C30826D03F01F0399405160D0E919129D
:101550004A60C16E31B10A6822F480720A60D0E933
:101560001C124A600122016D002380F8352080F8AA
:10157000343001B18847002010E70000100002401D
:10158000580002407000024088000240A000024063
:10159000B800024088040240A0040240B80402409F
:1015A00008540258F0B5027C012A7DD00122027451
:1015B00002680024536B43F0010353630268D2F8BE
:1015C000003423F00103C2F800340268D2F800347A
:1015D00043F00103C2F800340268D36823F0030328
:1015E000D36002680D68D3682B43D36002685369E7
:1015F00023F0070353610368D1E906564F695A691E
:101600003D4332432A435A610268136923F00F03B2
:10161000136102684D6813692B4313610268D2F8A5
:10162000003423F00E03C2F8003402684B68D2F88D
:10163000005445EA4303C2F800340268536E6FF366
:101640000F03536602688D68536E2B43536602681E
:10165000D2F8003423F0F003C2F800340368D1E973
:101660000327D1E908653A433543D3F800642A4398
:101670003243C3F800240268936E23F0010393669B
:1016800002688B6A916E194391660168D1F808244B
:1016900042F00102C1F808240168D1F8082442F0A0
:1016A0000202C1F8082400E002E004740020F0BD4A
:1016B0000220F0BDF0B5027C012A30D00122027474
:1016C00002684FF0000E174C936E2340936691E82A
:1016D0009400D1E9036C2243374301F114033A43E8
:1016E00042EA0C0293E8F8101A4303682243CC6ADA
:1016F0002A4332439D6E3A4342EA0C0222432A4374
:101700009A660268936E23F00203936602680B6B7D
:10171000916E1943916680F810E00020F0BD022020
:10172000F0BD0000FF80F0FE10B5027C012A0ED053
:101730000122027402680024D36A23F01F03D362DB
:101740000268D36A0B43D3620474204610BD0220A2
:1017500010BDF0B5027C012A3BD001220274D1E910
:101760000023934200D91A460368002442EA024546
:10177000D3F8982002F0FC22C3F898200268D2F82F
:1017800098302B43C2F898300268D2F89C3003F4AA
:101790000043C2F89C3003688D890F7A0E6953F8B4
:1017A0009C2F2D04324345EA07652A431A600268DC
:1017B000D2F8A43023F47F43C2F8A4300268496908
:1017C000D2F8A43043EA0121C2F8A4100474002026
:1017D000F0BD0220F0BD38B504003FD00320607496
:1017E00020680025D0F8041421F00801C0F8041482
:1017F0002068D0F8041401F008010091416821F03C
:10180000010141602068416801F001010091D0F8B8
:10181000A01021F00601C0F8A0102068D0F8301404
:1018200021F00101C0F830142068D0F8301401F024
:1018300001010091D0F8301421F08071C0F830140B
:101840002068D0F8300400F080700090204600F04E
:1018500009FA656165740020257438BD012038BD22
:1018600003480168002902DB4FF0FF310160704737
:1018700040000020704710B5027C012A13D00122DD
:10188000027402680023D2F81C4424F48004C2F8D5
:101890001C440268D2F81C4444EA8151C2F81C146A
:1018A0000374184610BD022010BD10B50446006830
:1018B000D0F80C14C90709D0D0F80814C90705D00E
:1018C0000121C0F81014204600F089FA2068D0F8F1
:1018D0000C14890709D5D0F80814890705D5022109
:1018E000C0F810142046FFF7BBFFA069002851D0B4
:1018F0002068D0F8BC30D0F8C410D0F8C020D0F8A0
:10190000C80019400B0400EA02001B0C03D06269F6
:1019100042F00102626111F4F81F03D0616941F0E5
:1019200002016161C10703D0616941F00401616195
:10193000810703D5616941F00801616110F00C0F66
:1019400003D0616941F010016161C10603D561698D
:1019500041F020016161810603D5616941F04001D8
:101960006161410603D5616941F080016161010651
:1019700003D5616941F48071616110F4F85F03D0AF
:10198000606940F4007060616069002802D0204600
:10199000FFF770FF10BD00002DE9F84304000D466D
:1019A00002D0607C18B105E00120BDE8F883204634
:1019B00000F059F90320607420684FF00009D0F856
:1019C000301441F08071C0F830142068D0F8300431
:1019D00000F08070009000F03BFB4FF47A770646F1
:1019E00005E000BF00F034FB801BB84235D820680A
:1019F000D0F80C04C004F5D52068674AD0F830143C
:101A00001140C0F830142068D5E900212B89D0F8A6
:101A100030644FEAC12C46EA82014CEA034211438A
:101A2000C0F830142068D0F8301441F00101C0F83B
:101A300030142068D0F8300400F00100009001203C
:101A400000F0CEF900F004FB0646B84607E000BF00
:101A500000F0FEFA801B404501D90320A5E720686D
:101A6000D0F80C04C005F3D520684E46416841F01B
:101A7000010141602068416801F001010091816825
:101A800021F0FF0181602068A268816811438160B4
:101A90002068D0F8A01041F00201C0F8A010206822
:101AA000D0F8A01041F00401C0F8A0102068D0F8D0
:101AB000A41021F00301C0F8A4102068E268D0F857
:101AC000A4101143C0F8A41000F0C2FA0746206821
:101AD000D0F8A400800715D0C1464FF094082168C3
:101AE000D1F8B01038EA010014D000F0B1FAC01BF0
:101AF0004845F4D92674B0E700F0AAFAC01B404567
:101B000002D9F7E74FF014092168D1F8B01039EA8B
:101B10000100F1D1686800B90120204F22682B7ABA
:101B200029687843D2F8185446F2A81703F0030343
:101B3000794325F03F05C2F818549840B0FBF1F006
:101B40002268D2F818140143C2F818142068C0F8AB
:101B5000C4602068C0F8C860A6612068416821F0B0
:101B6000010141602068416801F001010091D0F855
:101B70009410012221F00301C0F89410D4E900036D
:101B8000D0F89410194341F00101C0F89410666137
:101B90006274002009E700000386FCFF00093D0095
:101BA0002DE9FF4F81B00446007C1D469346DDE9D8
:101BB0000EA6012809D00120207400F049FA4FF444
:101BC0007A7907464FF000080DE0022005B0BDE825
:101BD000F08F00BF00F03CFAC01B484503D903203A
:101BE00084F81080F2E72068406FC007F2D0032D20
:101BF000504602D200212B4608E00323002108278B
:101C000007EBC107725CBA401043491C9942F6D3F6
:101C10002168EA1A3344086714E0042A01D2164600
:101C200000E004260021084606E01F5C4FEAC00CD5
:101C300007FA0CF73943401CB042F6D32068921BD8
:101C400033440167002AE8D16D1C02995A46C5F356
:101C5000072000902068EBB2FEF704FF002084F814
:101C60001080B3E7704770472DE9F84F0446007CB9
:101C70008B461746DDE90A8ADDF8309001281D46BB
:101C80000FD001204FF00006022D20740CD9C5F3AF
:101C90000720009037222046EBB2FEF723FF90BBCF
:101CA00002E00220BDE8F88FB8F1060F09D0B8F1C4
:101CB000040F0AD0B8F1140F0BD0B8F1240F0AD0DA
:101CC00040E00096534620680BE000960023206811
:101CD00007E0009602E099F80100009099F80030C2
:101CE000206842465946FEF7BDFE00F0B1F9804635
:101CF0002BE02068416FC90612D4026F042D03D275
:101D000000202B460AE01DE0042300204FEAC00C0F
:101D100022FA0CF1401C6D1E07F8011B9842F5D306
:101D200000F096F9A0EB0800B0F57A7F02D9032005
:101D30002674B7E72068416F490606D4D0F8C00082
:101D4000800602D501202674ACE7002DD1DC0020EE
:101D50002674A7E7017C01290CD0012101740168D8
:101D60000022D1F8043443F00403C1F804340274AF
:101D7000104670470220704738B504460498257C09
:101D8000012D08D00125257400902046FEF7AAFEFB
:101D90000021217438BD022038BD08B5017C01291D
:101DA0001BD001210174016800224B6843F001033C
:101DB0004B6001684B6803F001030093D1F80434D1
:101DC00043F00803C1F804340168D1F8041401F0A9
:101DD000080100910274002008BD022008BD704770
:101DE00070B5044600F034F90546601C02D0044882
:101DF0000078044400F02CF9401BA042FAD370BDD7
:101E0000480000202DE9F84F03247F4D00234FF0B8
:101E100001094FF0B04B4FF00F0AEDE009FA03F65D
:101E200032407AD00F7907F00307012F01D0022F3B
:101E300019D187684FEA430ED1F80CC004FA0EF8A6
:101E400027EA08070CFA0EFC4CEA070CC0F808C099
:101E5000D0F804C00F792CEA060CC7F300179F4096
:101E600047EA0C0747600E79F643B60702D18E6841
:101E7000012E0BD0C6684FEA43088F6804FA08FCAD
:101E800026EA0C0607FA08F73743C7600E7906F012
:101E90000306022E12D1DE080F694FEA437C00EBE5
:101EA0008606B646366A4FEADC6C0AFA0CF807FA80
:101EB0000CF726EA08063743CEF820700F7906683B
:101EC0004FEA430807F0030704FA08FC07FA08F78B
:101ED00026EA0C06374307604E6816F4403F1CD0D4
:101EE0004A4E376847F00207376036689F0706F0AA
:101EF0000206009623F0030606F1B046B6463F0FF1
:101F0000D6F80864DFF808810AFA07FC404526EA9B
:101F10000C0603D14FF0000C41E06CE0DFF8F4C098
:101F2000604502D14FF0010C39E0DFF8ECC06045AC
:101F300002D14FF0020C32E0DFF8E0C0604502D180
:101F40004FF0030C2BE0DFF8D8C0604502D14FF012
:101F5000040C24E0DFF8CCC0604502D14FF0050C42
:101F60001DE0DFF8C4C0604502D14FF0060C16E05A
:101F7000DFF8B8C0604502D14FF0070C0FE0DFF882
:101F8000B0C0604502D14FF0080C08E0DFF8A4C0F3
:101F9000604502D14FF0090C01E04FF00A0C0CFA39
:101FA00007FC4CEA060CCEF808C44F68DBF800606A
:101FB000FF0226EA020600D516435F46CBF8006012
:101FC000D1F804C0DBF804605FEA8C2C26EA020634
:101FD00000D516437E606E684F6826EA0206BF038E
:101FE00000D516436E602E684F6826EA0206FF038E
:101FF00000D516432E605B1C0A6832FA03F67FF4A4
:102000000DAFBDE8F88F000080000058F44402587E
:10201000000002580004025800080258000C025840
:10202000001002580014025800180258001C0258F0
:1020300000200258002402580AB181617047090447
:10204000FBE7000001480068000C70470010005CCE
:10205000014880687047000048000020054901EBF6
:1020600080010548D1F88014814201D100207047D9
:10207000012070470060025800030080034A41F4C9
:10208000407102EB8000C0F80014704700600258F5
:10209000024881680278114481607047480000203E
:1020A000032010B500F0EEF901F0FAF90F4A1049DB
:1020B00014681368C4F3032203F00F038A5CC95C3D
:1020C00002F01F0201F01F01D0400A4A20FA01F17C
:1020D000116009490860002000F010F808B10120E3
:1020E00010BD00F093F9002010BD00001844025804
:1020F000B41B0A08580000205400002070B50D4D94
:1021000004462878A0B14FF47A71B1FBF0F00A4987
:102110000968B1FBF0F001F07FFD48B9102C07D23F
:1021200000222146501E00F08DF900206C6070BD29
:10213000012070BD48000020540000202DE9F0412E
:10214000044690F8A00016460F4601281DD0012530
:1021500084F8A050022084F8A10006EB860000EB72
:10216000C600342204EB80003830FEF7E6F8324631
:102170003946204602F0F8FB216800204D6284F8C1
:10218000A15084F8A000BDE8F0810220FBE770B503
:10219000040016D02068D0F8841021F00101C0F8A6
:1021A00084102068D0F8041121F00101C0F8041156
:1021B0002068416A41F002014162FFF749FF05468C
:1021C00006E0012070BDFFF743FF401B642803D8E1
:1021D0002068806C4007F6D52068816921F00101F4
:1021E0008161204600F068F80020C4F8A40084F85B
:1021F000A10084F8A00070BD2DE9F041040004D0D6
:1022000094F8A100002518B107E00120BDE8F08195
:10221000204684F8A05000F050F8022084F8A10075
:1022200020680123816921F070418161D4E90010A7
:10223000D4E902722669384332438E691043304331
:1022400088612268A08AA16941EA00419160226800
:10225000A08B216A41EA0041D1602268A08CA16A6A
:1022600041EA004111612268A08D216B41EA0041E1
:102270005161226894F8351094F83600D66A00044B
:1022800006F07F46D662226840EA012094F8346066
:10229000D16A31430143D1622068416B41F00601AC
:1022A00041632068816941F001018161C4F8A45053
:1022B00084F8A1300020A9E77047704710B530B30B
:1022C000026800211F23D46824F00104D46002684E
:1022D000D16002681161026851610268916102680F
:1022E000D1610268116202685162026891620268FB
:1022F00011630268516302685360C16501664166FB
:10230000816680F83D1080F83C10002010BD01204F
:1023100010BD70B50446FFF79BFE06465CB1002574
:1023200084F83C50022084F83D002068C16821F008
:102330000101C1600CE0012070BDFFF789FE801B28
:10234000052805D94021A166032084F83D00F2E765
:102350002068C068C007F0D1204602F0DDFBE565CB
:10236000012025666566A56684F83D00002070BDE5
:10237000154BF0B5083B427813491A600B680A1FE9
:1023800023F001030B6043681360057BC67A827AF1
:10239000437B2D07847B45EA0665C77B90F809C01F
:1023A000067A90F800E045EAC24040EA834040EAFD
:1023B000444040EA074040EA0C2040EA460040EA38
:1023C0000E000860F0BD0000A0ED00E0BFF35F8FDD
:1023D000044800210368034A23F480330360703209
:1023E0001160704724ED00E0074A40F00100064903
:1023F00070321060086840F480300860BFF34F8F7F
:10240000BFF36F8F7047000024ED00E0054808B56A
:10241000016841F002010160006800F002000090D4
:1024200008BD0000F4440258002809DB410900F00F
:102430001F028900012001F1E0219040C1F8000154
:10244000704700000E4BF0B41B680D46C3F3022327
:10245000C3F10706042E00D90426191D072901D24D
:10246000002300E0DB1E012404FA06F19C40491E13
:102470002940641E994014402143F0BC04F0EDB99A
:102480000CED00E0064900F0070210B54FF6FF041E
:102490000868044B204040EA02201843086010BD41
:1024A0000CED00E00000FA052DE9F0411E4C054658
:1024B000206800F007000628206804D000F03F00E4
:1024C000A84228D12EE020F03F0028432060FFF7EB
:1024D000BFFD154F4FF47A780646083F05E000BF70
:1024E000FFF7B6FD801B404515D83868C04380040F
:1024F000F6D41E2D05D02E2D03D01D2D01D02D2D4F
:1025000010D1FFF7A5FD0546464607E0FFF7A0FD01
:10251000401BB04202D90120BDE8F0812068C043D1
:10252000C003F3D40020F7E70C48025810B500F0C0
:1025300071FF05490968054AC1F30211515C01F0B8
:102540001F01C84010BD000020440258B41B0A08F7
:10255000494930B5484C0B1D0A68143409681D6898
:10256000246802F00303C5F30012C1F30531C4F37C
:10257000CC04002914FB02F200EE102AF8EE400A07
:1025800075D03F4A9FED3D1AB7EE000A6BB1DFED03
:102590003D1A012B01D0022B64D002EE101A1168F3
:1025A000F8EE422A81EEA22A21E0334C283C23682F
:1025B0009B0612D5344B246801EE901A1168C4F3BF
:1025C000C104F8EE612AE34001EE903AC1F308013C
:1025D000F8EE611A81EEA22A0BE001EE901ADFED0F
:1025E0002B2A00BFF8EE611A116882EEA12AC1F30E
:1025F000080101EE901A1168F8EE611A40EE811A96
:1026000071EE800A62EE200AC1F3462101EE101A33
:10261000B8EE411A31EE001AC0EE811ABCEEE11A92
:1026200080ED001A1168C1F3064101EE101AB8EEF0
:10263000411A31EE001AC0EE811ABCEEE11A80EDAB
:10264000011A1168C1F3066101EE101AB8EE411AC1
:1026500031EE000A80EE801ABCEEC10A80ED020A5B
:1026600030BD04E001EE901ADFED092ABAE700213F
:10267000016041608160F3E728440258000000399E
:10268000384402580024744A0090D0030024744C4B
:1026900020BCBE4B494930B5484C0B1D0A681C3460
:1026A00009681D68246802F00303C5F30022C1F322
:1026B0000551C4F3CC04002914FB02F200EE102AE9
:1026C000F8EE400A75D03F4A9FED3D1AB7EE000A7A
:1026D0006BB1DFED3D1A012B01D0022B64D002EE6D
:1026E000101A1168F8EE422A81EEA22A21E0334C3A
:1026F000283C23689B0612D5344B246801EE901ABF
:102700001168C4F3C104F8EE612AE34001EE903A87
:10271000C1F30801F8EE611A81EEA22A0BE001EE86
:10272000901ADFED2B2A00BFF8EE611A116882EED5
:10273000A12AC1F3080101EE901A1168F8EE611A9E
:1027400040EE811A71EE800A62EE200AC1F3462142
:1027500001EE101AB8EE411A31EE001AC0EE811ADD
:10276000BCEEE11A80ED001A1168C1F3064101EEDA
:10277000101AB8EE411A31EE001AC0EE811ABCEE02
:10278000E11A80ED011A1168C1F3066101EE101A19
:10279000B8EE411A31EE000A80EE801ABCEEC10A92
:1027A00080ED020A30BD04E001EE901ADFED092A47
:1027B000BAE70021016041608160F3E728440258D4
:1027C00000000039404402580024744A0090D003AD
:1027D0000024744C20BCBE4B2DE9FE4F0546DFF8AB
:1027E000E89350F8081B0024F74FC943009005F107
:1027F0002800264609F12409019008011DD4E86E3D
:1028000050B1B0F5801F0CD0B0F5001F0ED0B0F560
:10281000401F1ED001240FE0386840F400303860BB
:1028200017E00098022102F029FE03E0019802213E
:1028300002F0B4FE04000CD026462888C043C00530
:1028400023D4E86D05281ED2DFE800F00C11161B1A
:102850001B00EA6ED9F8001021F440111143C9F8A9
:102860000010EAE7386840F40030386009E000986A
:10287000002102F003FE03E00198002102F08EFE29
:10288000044674B100E0012426462888C043800530
:1028900028D4286E80281ED00CDC90B140280ED1A0
:1028A00014E0EA6DD9F8001021F007011143C9F8CE
:1028B0000010EAE7C02813D0B0F5807F10D00124C3
:1028C0000FE0386840F40030386009E000980021DB
:1028D00002F0D4FD03E00198002102F05FFE0446FF
:1028E0009CB126462888DFF8E082C04308F12C0816
:1028F00040052CD4D5F8AC00B0F5800F20D00DDC0D
:10290000A0B1B0F5001F0FD115E02A6ED9F8001064
:1029100021F4E0711143C9F80010E3E7B0F5C00FEE
:1029200013D0B0F5000F10D001240FE0386840F448
:102930000030386009E00098002102F09FFD03E0BC
:102940000198002102F02AFE04467CB12646288820
:10295000C04300052DD4D5F8B000B0F1007F21D0E0
:102960000EDCA8B1B0F1807F10D116E0D5F8AC2014
:10297000D8F8001021F460011143C8F80010E6E710
:10298000B0F1407F13D0B0F1806F10D001240FE080
:10299000386840F40030386009E00098002102F007
:1029A0006DFD03E00198002102F0F8FD044694B1AA
:1029B00026462868DFF810B2C0430BF1200B8001D7
:1029C0001FD4E86CD8B110280FD0202812D030289E
:1029D00015D0012414E0D5F8B020D8F8001021F06B
:1029E000E0611143C8F80010E3E7386840F40030B4
:1029F000386004E00098022102F040FD044674B102
:102A000026462888C043C0042BD4686EB0F5005F0A
:102A100020D00DDCA0B1B0F5805F0FD115E0EA6CDD
:102A2000DBF8001021F030011143CBF80010E8E78B
:102A3000B0F5405F13D0B0F5804F10D001240FE007
:102A4000386840F40030386009E00098002102F056
:102A500015FD03E00198002102F0A0FD04468CB1B1
:102A600026462888C043800429D4A86EB0F5403F8C
:102A700023D010DC08B3B0F5803F14D0B0F5003F90
:102A80000FD115E06A6ED9F8001021F4E04111432E
:102A9000C9F80010E5E7B0F5802F0ED0B0F5A02FF3
:102AA0000BD001240AE00098012102F0E7FC03E0CA
:102AB0000198012102F072FD044694B1264628884F
:102AC000C04340042AD4D5F8B400B0F1405F23D00D
:102AD00010DC08B3B0F1805F14D0B0F1005F0FD10B
:102AE00015E0AA6ED9F8001021F4E0211143C9F8CD
:102AF0000010E4E7B0F1804F0ED0B0F1A04F0BD042
:102B000001240AE00098012102F0B8FC03E00198DA
:102B1000012102F043FD04465CB126462868C0430B
:102B2000400117D4286D98B1B0F5807F0BD00124F7
:102B30000FE0D5F8B420D8F8001021F0E04111439F
:102B4000C8F80010EAE70098012102F097FC04465B
:102B500074B126462888C04300041ED4686FD0B1E3
:102B6000B0F1805F0DD0B0F1005F0FD0012413E011
:102B70002A6DDBF8001021F480711143CBF80010AE
:102B8000E8E7386840F40030386004E0009801213C
:102B900002F074FC044674B126462868C043C001A4
:102BA00020D4A86CE0B1012810D0022813D003284B
:102BB00016D0012415E06A6FD9F8001021F04051B9
:102BC0001143C9F80010E8E72C440258386840F473
:102BD0000030386004E00098022102F04FFC044607
:102BE0006CB126462868C04340024DD4FA480168BB
:102BF00041F480710160FFF72BFA82460EE0AA6C67
:102C0000DBF8001021F003011143CBF80010E9E7D5
:102C1000FFF71EFAA0EB0A00642833D8EE480068DC
:102C2000C005F5D57CBBDFF8B4A3B5F8B810DAF869
:102C3000000001F4407100F44070884211D0DAF8CD
:102C40000010DAF8002021F4407142F48032CAF812
:102C50000020DAF8002022F48032CAF80020CAF8F6
:102C60000010D5F8B800B0F5807F1AD1FFF7F0F961
:102C7000029012E0FFF7ECF90299411A41F2883014
:102C800081420AD9032426462878DFF850A3C0439E
:102C9000AAF11C0AC00721D03DE0DAF80000800745
:102CA000E8D5D5F8B810C1F301200328CC480DD0E1
:102CB000016821F47C510160B5F8B820DAF8001001
:102CC000C2F30B021143CAF80010DDE7C54A0368DE
:102CD00002EA111223F47C511143ECE7D5F880008D
:102CE000182816D005DCA0B1082808D0102804D177
:102CF0000AE020280DD028280BD001240AE00098F3
:102D0000012102F0BBFB03E00198012102F046FC27
:102D1000044664B126462878C04380071FD4E86F74
:102D200006281AD2DFE800F0170D12171717D5F88A
:102D30008020DAF8001021F038011143CAF80010A1
:102D4000E9E70098012102F099FB03E001980121D5
:102D500002F024FC04467CB100E0012426462878D9
:102D6000C04340071FD4D5F89800062819D2DFE8E1
:102D700000F0160C11161616EA6FDAF8001021F0A2
:102D800007011143CAF80010E9E70098012102F099
:102D900075FB03E00198012102F000FC0446A4B198
:102DA00000E0012426462878C04380062BD4D5F8BD
:102DB0009400B0F1405F24D011DC10B3B0F1805F1B
:102DC00015D0B0F1005F10D116E0D5F89820D8F8F2
:102DD000001021F007011143C8F80010E3E7B0F13B
:102DE000804F0ED0B0F1A04F0BD001240AE0009824
:102DF000002102F043FB03E00198022102F0CEFB28
:102E0000044694B126462878C04340062BD4D5F812
:102E1000A000B0F5406F24D011DC10B3B0F5806F86
:102E200015D0B0F5006F10D116E0D5F89420DAF87F
:102E3000001021F0E0411143CAF80010E3E7B0F5BB
:102E4000805F0ED0B0F5A05F0BD001240AE000989F
:102E5000002102F013FB03E00198022102F09EFB27
:102E6000044694B126462878C04300062BD4D5F8F2
:102E7000A400B0F5C04F24D011DC10B3B0F5005F52
:102E800015D0B0F5804F10D116E0D5F8A020D8F8B5
:102E9000001021F4E0511143C8F80010E3E7B0F549
:102EA000004F0ED0B0F5204F0BD001240AE000985F
:102EB000002102F0E3FA03E00198022102F06EFB28
:102EC000044654B126462878C04300071ED4D5F8DE
:102ED0008800B0F5805F0AD00FE0D5F8A420D8F8BC
:102EE000001021F460411143C8F80010EBE701988D
:102EF000022102F053FB00B10126D5F88820DAF850
:102F0000001021F440511143CAF800102878C04342
:102F1000C00613D4D5F89C00B0F5807F05D1019888
:102F2000022102F03BFB00B10126D5F89C20D8F825
:102F3000001021F440711143C8F800102868C04304
:102F4000000316D4D5F8A80038B1B0F5803F09D0F9
:102F5000B0F5003F0BD001240AE00098002102F0F8
:102F60008DFA03E00198022102F018FB04468CB1AF
:102F700026462868C043400322D4D5F88C00B0F51B
:102F8000801F11D0B0F5001F13D0B0F5401F15D031
:102F9000012414E0D5F8A820D8F8001021F440311D
:102FA0001143C8F80010E4E7386840F40030386096
:102FB00004E00198012102F0F1FA0446A4B126468A
:102FC0002868C043C00325D4686DB8B1B0F5803F10
:102FD00019D001241DE00000004802587044025836
:102FE00010440258CFFFFF00D5F88C20DAF800100B
:102FF00021F440111143CAF80010E1E7386840F4A9
:103000000030386004E00098022102F037FA0446EC
:10301000E4B126462868C043800005D40198022107
:1030200002F0BCFA00B101262868C04380031CD41A
:10303000D5F88400B8B1B0F5807F10D0B0F5007F2E
:1030400011D0B0F5407F0ED001240DE06A6DDBF8A1
:10305000001021F480311143CBF80010DAE7386812
:1030600040F400303860E4B326462868C043C0020C
:1030700007D4AA6FD9F8001021F000411143C9F814
:1030800000102868C043C00007D44A48D5F8BC20C7
:10309000016821F48041114301602868C043800227
:1030A00007D42A6FD9F8001021F080711143C9F8B4
:1030B00000102868C043400009D43E48016821F44C
:1030C000004101600168D5F8C02011430160286803
:1030D000C04309D4AA6DDBF8001021F04051114320
:1030E00000E016E0CBF800102868C043000208D4C6
:1030F000D5F89020DAF8001021F440011143CAF805
:10310000001028790024C04300F0010020430AD0B9
:103110000FE0D5F88420DAF8001021F44071114353
:10312000CAF80010A1E70098002102F0A7F900B149
:1031300006462879C04300F00200204305D10098DC
:10314000012102F09BF900B106462879C04300F046
:103150000400204305D10098022102F08FF900B14C
:1031600006462879C04300F00800204305D10198A5
:10317000002102F013FA00B106462879C04300F09E
:103180001000204305D10198012102F007FA00B197
:1031900006462879C04300F02000044304D101987A
:1031A000022102F0FBF900B916B10120BDE8FE8F43
:1031B0000020FBE7104402582DE9F05F04000F46A1
:1031C0007ED0DFF83882D8F8000000F00F00B84257
:1031D0000CD2D8F8001021F00F013943C8F80010C4
:1031E000D8F8000000F00F00B84269D12078844D73
:1031F00040070AD52069296801F07001884204D986
:10320000296821F070010143296020787C4E361D29
:1032100000070AD56069316801F07001884204D95D
:10322000316821F07001014331602078C0060AD571
:10323000A069316801F4E061884204D9316821F461
:10324000E061014331602078DFF8B4B180060BF112
:10325000080B0CD5E1695846DBF8002002F070023B
:10326000914204D9026822F070020A430260207879
:1032700080070AD5E068296801F00F01884204D967
:10328000296821F00F01014329602078C0073ED052
:103290005B49A2682868183920F4706010432860E0
:1032A0006068022818D0032819D00968012819D0AD
:1032B000490700294ADADFF848A1AAF1080A00E024
:1032C00044E0DAF8002022F007020243CAF80020A6
:1032D000FEF7BEFE814612E009688903E9E7096846
:1032E0008901E6E7C905E4E7FEF7B2FEA0EB0901B4
:1032F00041F28830814202D90320BDE8F09F616825
:10330000DAF8000000F03800B0EBC10FECD1207803
:1033100080070AD5E068296801F00F01884204D2CD
:10332000296821F00F0101432960D8F800104046B8
:1033300001F00F01B9420BD9016821F00F013943A7
:103340000160006800F00F00B84201D00120D4E70E
:10335000207840070AD52069296801F07001884269
:1033600004D2296821F07001014329602078000708
:103370000AD56069316801F07001884204D2316871
:1033800021F07001014331602078C0060AD5A069A0
:10339000316801F4E061884204D2316821F4E061CF
:1033A00001433160207880060CD5E1695846DBF88E
:1033B000002002F07002914204D2026822F07002F2
:1033C0000A43026000F06CF80E492A682B68C2F3C9
:1033D000032203F00F038A5CC95C02F01F0201F0B4
:1033E0001F01D040084A20FA01F111600749086026
:1033F00007480068BDE8F05FFEF780BE002000527D
:1034000018440258B41B0A08580000205400002039
:103410004C00002030B500F043F80B4A0B490C4B30
:1034200015681468C5F3032204F00F048A5C095D73
:1034300002F01F0201F01F01D040064A20FA01F1FC
:1034400019601060084630BD18440258B41B0A08C1
:10345000580000205400002000B5FFF7DBFF0549AD
:103460000968054AC1F30211515C01F01F01C8400F
:1034700000BD00001C440258B41B0A0800B5FFF749
:10348000C9FF05490968054AC1F30221515C01F0F1
:103490001F01C84000BD00001C440258B41B0A08AC
:1034A000454970B545480968434B103B11F0380257
:1034B00008D00111082A03D0102A0BD0182A0BD0EB
:1034C000084670BD19688906FBD51968C1F3C101AA
:1034D000C84070BD3A4870BD3749374D18310C1D92
:1034E00024350A68096826682D6802F0030406F08E
:1034F0000102C1F30511C5F3CC0515FB02F200EE84
:10350000102AB8EE400AE9B32F4ADFED2E0AB7EED3
:10351000001A6CB1DFED2D1A012C01D0022C43D022
:1035200002EE101A1068F8EE422A81EEA22A1EE07E
:103530001C68A40611D51B6801EE901A1168C3F32C
:10354000C103F8EE612AD84001EE900AC1F30800E9
:10355000F8EE611A81EEA22A0BE001EE901ADFED7F
:103560001C2A00BFF8EE611A106882EEA12AC0F38F
:10357000080001EE900AF8EE611A40EE201A31EED2
:10358000810A00E015E022EE000A1068C0F3462030
:10359000401C00EE900AF8EE600A80EE201ABCEEA5
:1035A000C10A10EE100A70BD01EE901ADFED092A73
:1035B000D8E7002070BD0000104402580090D003EE
:1035C00040787D0100000039304402580024744ADC
:1035D0000024744C20BCBE4B2DE9F05F04007DD06C
:1035E000FF4F2078FE4D1837DFF8F493103DC007E9
:1035F00048D0D9F80000396800F03800102815D0FC
:10360000182803D101F0030002280FD06068B0F53C
:10361000803F12D010B1B0F5A02F18D0286820F448
:1036200080302860286820F4802009E02868800322
:1036300028D560680028D2D024E0286840F4803083
:103640002860606888B1FEF703FD064609E0286837
:1036500040F480202860F0E7FEF7FAFC801B642825
:103660006FD828688003F7D50CE0FEF7F1FC06461A
:1036700005E000BFFEF7ECFC801B6428F0D828684A
:103680008003F7D4207841F20308D54E0C3E800722
:1036900069D5D9F80000396810F038000ED0182824
:1036A00001D188070AD0E06890B3296821F0190198
:1036B00001432960FEF7CCFC824631E028684007D0
:1036C00002D5E06800288AD0E168286820F0190057
:1036D00008432860FEF7BCFC824607E0DFE000BF3D
:1036E000FEF7B6FCA0EB0A000228B9D8286840070C
:1036F000F6D500BFFEF7A6FC40451BD82069402840
:1037000012D0316821F47C3141EA003030602AE087
:1037100018E000BFFEF79CFCA0EB0A0002289FD82F
:1037200028684007F6D5E5E7306820F47C3040F49F
:103730000030EBE7207C316821F0FE4141EA006077
:10374000E4E70DE1286820F001002860FEF780FC26
:10375000824605E0FEF77CFCA0EB0A0002288DD82B
:1037600028684007F6D42078C0065DD5D9F8000057
:10377000DFF86CB2396800F03800ABF1040B0828B0
:1037800010D0182803D101F0030001280AD0E06905
:103790000028286838D040F080002860FEF758FCE8
:1037A000824623E02868C00523D5E069802876D1C9
:1037B0001FE0206A202821D0316821F0F84141EA39
:1037C0008060306030E000BF94F82010DBF800200B
:1037D00022F07C5242EA0161CBF8001024E000BFE5
:1037E000FEF736FCA0EB0A00022898D82868C0052E
:1037F000F6D5FEF727FC4045E6D8DAE7306820F03A
:10380000F84040F08040DCE720F080002860FEF7C0
:103810001FFC064605E000BFFEF71AFC801B0228CD
:103820009DD82868C005F7D42078000729D56C48B2
:103830006169643000298046016811D041F00101BE
:103840000160FEF705FC064605E000BFFEF700FC40
:10385000801B0228C9D8D8F800008007F6D510E0F0
:1038600021F001010160FEF7F3FB064605E000BF11
:10387000FEF7EEFB801B022872D8D8F80000800704
:10388000F6D42078800623D5A0690028286810D0B7
:1038900040F480502860FEF7DBFB064605E036E189
:1038A000FEF7D6FB801B02285AD828688004F7D57B
:1038B0000EE020F480502860FEF7CAFB064604E0C4
:1038C000FEF7C6FB801B02284AD828688004F7D47C
:1038D000207840074FD5DFF80C81D8F8001041F46C
:1038E0008071C8F80010FEF7B3FB064605E000BF84
:1038F000FEF7AEFB801B642832D8D8F80000C00564
:10390000F6D5374EA068603601280AD008B10528E0
:1039100013D0306820F001003060306820F00400DF
:1039200002E0306840F001003060A06841F2883A5F
:1039300090B1FEF78DFB80460AE0306840F004004D
:103940003060EEE7FEF784FBA0EB0801514507D895
:1039500030688007F6D50EE0FEF77AFB804607E078
:1039600084E000BFFEF774FBA0EB080151457DD851
:1039700030688007F6D4606AB0B3DFF86480D9F8A5
:10398000001008F120084FF6F87B08F10409C1F394
:10399000C2010329A8F1040A69D00228286820F08E
:1039A0008070286003D0FEF753FB044684E0FEF7E6
:1039B0004FFB064605E000BFFEF74AFB801B0228CE
:1039C00077D828688001F7D4E26A40F2F33138688A
:1039D00054F8283F884340EA02101843386004E056
:1039E0001044025800480258B5E0217B4346228922
:1039F0004FF4FE0C208A4FF0FE474902267D521EEE
:103A0000401EA1F50071C2F308088AB2761E0CEAC6
:103A1000004042EA08020243504607EA06610A43B0
:103A20001A60DAF8002022F00102CAF80020D9F862
:103A30000020266A22EA0B0242EAC602C9F80020E8
:103A4000DAF80010A26921F00C011143CAF8001045
:103A50000168E26921F0020111430160016841F44B
:103A600080310160016841F4003101E021E027E08C
:103A70000160016841F480210160016841F00101A9
:103A80000160286840F080702860FEF7E1FA044683
:103A900005E000BFFEF7DCFA001B022809D8286801
:103AA0008001F7D557E000BFFEF7D2FA001B0228CD
:103AB00002D90320BDE8F09F28688001F4D44AE0D1
:103AC00039680128D8F8000021D0A26A01F0030368
:103AD00093421CD1E26AC1F305118A4217D1216BCE
:103AE000C0F30802491E8A4211D1616BC0F346221D
:103AF000491E91420BD1A16BC0F30642491E91426F
:103B000005D1E16BC0F30660491E814201D001205E
:103B1000D0E7A16C4E46D9F80000C0F3CC0081423A
:103B200019D0DAF80000554620F00100CAF800006C
:103B3000FEF78EFA4FEA0007FEF78AFAB842FBD08A
:103B4000A26C306820EA0B0040EAC20030602868AE
:103B500040F0010028600020ACE7000070B50400D0
:103B60000D4603D094F82C0010B107E0012070BD81
:103B7000002084F82D00204600F018F8022084F878
:103B80002C002068211DFDF75CF8D4E900022946CD
:103B9000FDF7A8F804480121026842F000420260E3
:103BA00084F82C10002070BD00400052704710B502
:103BB000044690F82C00022804D094F82C00012828
:103BC00001D0012010BD022084F82C002068FDF7F0
:103BD0006DF8012084F82C00002010BD70B504465B
:103BE00090F82C000D46022804D0012803D00528A7
:103BF00001D0012070BD022084F82C002068FDF760
:103C00005EF82868022805D05FF0010084F82C00D7
:103C1000002070BD0520F9E7401EB0F1807F10B58F
:103C200001D3012010BD4FF0E02460610F21601727
:103C300002F013FE0020A0610721216110BD30B504
:103C400090F88410012918D0012280F884202421C2
:103C5000C0F888100022202401680B680D6823F04A
:103C6000005325F001050D60426601680B60C0F845
:103C7000884080F88420104630BD022030BD704757
:103C8000704770B5044690F8840001281DD00122C9
:103C900084F884202420C4F888002068056802681D
:103CA00022F0010202602068826822F060620A430A
:103CB0008260204601F08CFE2268202100201560E1
:103CC000C4F8881084F8840070BD022070BD70B5FF
:103CD000044690F8840001281DD0012284F8842035
:103CE0002420C4F8880020680568026822F00102D8
:103CF00002602068826822F060420A4382602046A7
:103D000001F066FE2268202100201560C4F88810AA
:103D100084F8840070BD022070BD70477047704702
:103D20002DE9F04107680025044640F60F030226FE
:103D3000F8693968BA6818420AD183067ED501F05D
:103D4000200302F0805C53EA0C0377D0616F7EE1C0
:103D5000D44BDFF854C3134001EA0C0C53EA0C0CAB
:103D60006CD05FEAC07C0CD05FEAC15C09D54FF033
:103D7000010CC7F820C0D4F8907047F00107C4F8D0
:103D80009070870709D5D70707D027683E62D4F817
:103D9000906046F00406C4F8906046070AD5D6073E
:103DA00008D0276804263E62D4F8906046F00206E8
:103DB000C4F8906006070CD501F020061E4308D019
:103DC000266808233362D4F8903043F00803C4F81F
:103DD000903003050BD54B0109D526684FF40063DD
:103DE0003362D4F8903043F02003C4F89030D4F814
:103DF0009030002B3DD0800609D501F0200002F064
:103E00008051084303D0616F09B12046884721687B
:103E1000D4F890008968490602D410F0280F2AD0FF
:103E2000204601F0B5FE2068806840061ED5206857
:103E3000083050E8001F21F0400100E021E040E898
:103E40000012002AF3D1D4F8800078B197490165B7
:103E5000D4F88000FDF798FA00280AD0D4F8800042
:103E6000016D00E02046BDE8F04108472046FFF71D
:103E700056FFBDE8F0812046FFF751FFC4F890508F
:103E8000F7E7D4F86CC02023BCF1010F7ED15FEAC4
:103E9000C06C7BD55FEAC16C78D510203862206891
:103EA0008068400673D5D4F8802081491068884224
:103EB00034D07F491831884230D07D493031884232
:103EC0002CD07B494831884228D0794960318842DA
:103ED00024D077497831884220D075499031884282
:103EE0001CD07349A831884218D07249884215D035
:103EF00070491831884211D06E49303188420DD056
:103F00006C494831884209D06A496031884205D0FD
:103F100068497831884201D06649903140684FF451
:103F200080770004000C40D0B4F85C1081423CD98A
:103F3000A4F85E00D069B8422FD0216851E8000F84
:103F400020F4807041E80002002AF6D12068083091
:103F500050E8001F21F0010140E80012002AF5D1CD
:103F60002068083050E8001F21F0400140E80012AE
:103F7000002AF5D1C4F88C30E566206850E8001FAF
:103F800021F0100140E80012002A01E04AE019E0A7
:103F9000F3D1D4F88000FDF747F82667B4F85C0049
:103FA000B4F85E10401A81B208E0B4F85C108142A7
:103FB0007FF466AFD069B842FAD126672046FFF792
:103FC0005EFE56E7B4F85C00B4F85E10B4F85E200C
:103FD000401A81B2002AF4D00029F2D0226852E8B7
:103FE000000F20F4907042E80007002FF6D1324F06
:103FF000206800F1080050E8002F02EA070240E8BC
:10400000002CBCF1000FF3D1C4F88C30E566656775
:10401000226852E8000F20F0100042E80003002B55
:10402000F6D1CAE7C60209D5560207D54FF480106B
:1040300038622046BDE8F041FFF770BE06060AD59B
:1040400001F0800602F40002164304D0A16F00299B
:104050007FF408AF0DE7420611D54A060FD520467A
:10406000016851E8002F22F0400241E80024002CB2
:10407000F6D1C0F88830856700F034F9F9E602021D
:1040800006D54A0004D52046BDE8F041FFF745BEFD
:10409000C00196D5002994DA2046BDE8F041FFF72B
:1040A000EFBD00000100001020010004875B000844
:1040B0001000024010040240FEFFFFEF10B50400A4
:1040C00003D0D4F8880010B107E0012010BD002013
:1040D00084F88400204600F027F82420C4F88800E3
:1040E0002068016821F001010160A06A10B120463A
:1040F00001F090FC204601F0DDFF0128E6D02068A9
:10410000416821F4904141602068816821F02A01D2
:1041100081602068016841F0010101602046BDE82E
:10412000104001F0DBBC000010B5B8B0044614210B
:1041300032A8FCF71BF9C8216846FCF717F91D499E
:104140002068884233D10020209001210446CDE927
:1041500000106846FEF740FB08B1FCF76FFD1648FB
:10416000016841F010010160006800F01000379014
:1041700011481038016841F001010160006832AB5C
:10418000022100F0010037904FF4C060072283E85D
:1041900013000A4832A9CDE93542FDF733FE00226B
:1041A00025201146FEF74EF92520FEF73DF938B0DF
:1041B00010BD000000100140F044025800000258F9
:1041C00030B4D0F88C30202B02D0022030BC7047A5
:1041D000A9B1A2B10B4D00240368C466AB420BD059
:1041E0005B681B0208D5046854E8003F43F0806315
:1041F00044E80035002DF6D130BC02F031B9012081
:10420000E4E70000000C00582DE9F0410068314956
:1042100088425CD130480126DFF8C0C00327014640
:1042200000F1380290F800E04B78002105791C4637
:104230005B1CBEF1000FDBB206D0BEF1010F18D03F
:10424000BEF1030F3DD12BE01555042B43703AD33B
:10425000234C1368A34201D0634502D1C3610670A9
:1042600030E05178117091785170D1789170477029
:1042700029E01555042B437025D3C36912686345A3
:10428000A2F1010305D1092B1BD8C0E90821C67092
:1042900017E0B3F5961F426113D28161077012E0F7
:1042A000036A4FF49622876903FB02F47A1CA4F197
:1042B0003F54E55582614469A24204D35B1C03620A
:1042C000867001704170BDE8F04102F0A1B9BDE80F
:1042D000F081000000100140000000204D554C54BA
:1042E000464143457047FEE7084A012310B50024C4
:1042F000C2E90031C2E9023404494FF6FF72FFF708
:104300006DFC002800D0601E10BD0000441000208D
:104310002DE9F0410C46096880464FF0FF36FFF763
:10432000E3FFF0B90127FDF793FE0546FDF790FE88
:10433000401BB842FAD32168404600F037F880B9F4
:10434000D4E90012404600F045F850B921464046F5
:1043500000F00AF828B9A168404600F04DF800B90D
:1043600000263046BDE8F0812DE9F0410E4A0125D6
:10437000D1E9033ED1E90547CE694FF0040C43EA89
:104380000E03C2F800C03C43096823433343D360A3
:10439000C2E9011504494FF6FF72FFF71FFC002820
:1043A00000D0A81EBDE8F08144100020084A002378
:1043B00070B5012402251560D360C2E901140449D7
:1043C0004FF6FF72FFF70AFC002800D0A01E70BD58
:1043D00044100020074B70B5082404C300254FF695
:1043E000FF7283E83200191FFFF7F8FB002800D0A6
:1043F000681E70BD4410002010B5FFF7D8FB0028E0
:1044000001D04FF0FF3010BD0221002010B5FCF7A5
:1044100082F810BD0421002010B5FCF77CF810BD17
:104420000821002010B5FCF776F810BD012100200E
:1044300010B5FCF770F810BD1021002010B5FCF786
:104440006AF810BDF8B5184802F0A0F9174C2046DC
:1044500002F0D2F9002100944FF448760846702308
:10446000324602F05DF92516284602F0C5F92046CD
:1044700002F084F901200EA102F032F970213246D7
:10448000002000954FF4B87302F04AF9134802F087
:104490007DF9042012A102F023F9BDE8F8400520BF
:1044A0001FA102F01DB90000C8000020FF0000FF9E
:1044B00020202020202020202020202046696E61FE
:1044C0006C2050726F6A65637420466163655F4457
:1044D0006574656374696F6E00000000D000002091
:1044E00054686520696D61676520696E7075742018
:1044F0007468726F75676820746865207365726987
:10450000616C20706F72742069732075736564200C
:10451000746F207265636F676E697A6500000000D2
:104520006661636573206F6E2074686520646576CC
:10453000656C6F706D656E7420626F61726420616E
:104540006E6420646973706C617920746865207290
:104550006573756C74732E00024800680860002053
:1045600070470000C8110020024840680860002021
:1045700070470000C81100202DE9F04100208AB0EA
:10458000FCF724F900F0D0F84D484FF0005300221A
:104590000525144600F134060360A0234260022181
:1045A0004FF40068C0E90A534264132302640163B4
:1045B00086E80A01FEF710F9424F280738603846AE
:1045C000FDF709F93E480126642110388460C0E9EE
:1045D00000153B490420C7E9020610393846FDF7AB
:1045E000DBF937484FF448717038046044618461E6
:1045F0004560C461C0E90214046101460462C0E977
:1046000009463846FCF7CEFF2D4D3302443D1901D3
:104610005E002B609F006E608801AF604A008B00D7
:104620000E014F01C5E90381410005F11408C5E9F8
:10463000090188E8CC0023482946FDF73BF800F043
:1046400063F92048FDF7A9FB232000900A2101907F
:1046500002900390CDE904411A486946FDF779F8C4
:10466000194806A90990194807901948ADF818404B
:104670000890A5F1B40000F0E1FE1649A5F1B400E0
:1046800001224860772100F081FB2C6029466C6094
:10469000AC60EC602C616C61AC61EC612C626C62B2
:1046A0000848AC62FDF706F806480421FDF73CF81F
:1046B00004480121FDF7DFF80AB00020BDE8F081D1
:1046C000700F00209C100020130500089D0A0008B0
:1046D000790A00084000002070B5114D8EB000230B
:1046E000FF2200934FF4C0662C68CDE901436D684A
:1046F000099107218DF83030CDE904328DF8313041
:104700000246039506938DF83230CDE907610548DE
:104710006946CDE90A45FDF711FD0EB070BD0000F8
:10472000C811002020110020284908B5086840F071
:1047300008000860086800F0080000902348583816
:10474000026842F008020260026822F00802026079
:104750001E4A103A136843F010031360126802F007
:1047600010020092194A683A136843F0100313606C
:10477000136823F0100313600A6842F010020A6005
:10478000096801F010010091016841F01001016019
:10479000016821F0100101600F2209215820FDF766
:1047A00051FE5820FDF740FE0F2209215A20FDF747
:1047B00049FE5A20FDF738FE0F2209217B20FDF724
:1047C00041FEBDE808407B20FDF72EBEE4440258C0
:1047D0002DE9F843C0EBC00088461B491C46089BE6
:1047E000154601EB8000C068022829D00021174837
:1047F0000022DFF85CC0FF274FF48036C0E90212C8
:104800000765C0E912324264C0E900C6FCF726FB26
:10481000002817D10D480121FCF7BCFA002811D15E
:1048200001200090094823462A464146FCF7E2FB56
:10483000002807D1BDE8F84304483221FCF753BBF8
:104840000221D4E7BDE8F883C8110020B810002089
:1048500000100052F8B5C0EBC0000F4627491646BD
:10486000DDE9062401EB80001D46C068022822D045
:104870005FF0000122484FF4403C224BC0E9021295
:10488000C0E9003CFCF7EAFA002836D11C480121B7
:10489000FCF780FA002830D1194833463A462146C1
:1048A0000095FCF7A7FB002827D1BDE8F840144885
:1048B0001921FCF718BBC4F34513C4F3C42003EB60
:1048C000430CC0EB401004F01F0400EB0010173045
:1048D0000CEB03232133C4EB44144FEA901C9809DA
:1048E000022104EB041417344FEA0C4343EA00207E
:1048F00040EA941040F07F44BCE7F8BDC8110020A6
:10490000B8100020001000522DE9F041154C144D54
:1049100020462560FDF73BFC022240F222360121B1
:10492000616100204FF4F173C4E9061204F128011B
:1049300040F2E31C771CC4E9082681E8881084F85B
:10494000340084F8350084F836006060A060E060D0
:10495000256020612046BDE8F041FDF74DBC000018
:1049600000100050201100202DE9FC4F82468D8858
:10497000894693468820DAF800108C2300EBCB148C
:104980009422A646C868C0F30B4028440D5904047D
:1049900003EBCB1005F47045CDE9000441F80E504F
:1049A0009C23D9F8004003EBCB164FF0AC0C9823B6
:1049B00040F2077702EBCB11A02503EBCB1205EBFE
:1049C000CB13DAF800500CEBCB1CD5F80C80C8F3F5
:1049D0000B4808F10108A044019C48EA040845F886
:1049E0000E80DAF80040B9F80C50D4F80C8020584A
:1049F000C8F30A08454400F47048009844F8008061
:104A0000DAF80040D9F80800D4F80C80C8F30A0896
:104A100008F101088044009848EA054844F80080FD
:104A2000DAF80000445824F007044450DAF8004053
:104A3000D9F81000605099F8310099F81810040264
:104A400099F83200000440EA016099F830102143DF
:104A50000143DAF800008151DAF80000815821F0B2
:104A6000FF018150DAF80000D9F814108150DAF80B
:104A70000000C158B943C150DAF80010D9E9070263
:104A80001043C850DAF80010D9F8240041F80C009F
:104A9000D9F81000C8B301283AD004283AD0022827
:104AA00038D0032836D0072834D00120DAF8003077
:104AB000B02505EBCB11B42284245D5802EBCB1258
:104AC00005F0E0255D50D9E9003504EBCB14EB1A75
:104AD000B9F8285043434543DAF80000DB1D43EAA8
:104AE00005434350DAF8000081586FF30A01815002
:104AF000DAF80000D9F82C108150DAF800000159DA
:104B000041F001010151BDE8FC8FFFE70420CDE732
:104B10000320CBE70220C9E770B50368D0E9031290
:104B20001143D960D0E90514D0E90725436A214330
:104B30002A43058D1143234AD0E90B461943836864
:104B400021430468314302EB85421143194321613B
:104B500041684FF08044A14204D101680A6942F0E3
:104B600040420A61026800215161426B002A08DA62
:104B70000268536943F480235361828E0368524272
:104B800000E0036892B21A62836B0268002B08DAB5
:104B9000536943F4002353610268038F156A5B4233
:104BA00000E0156A45EA034313624268A24203D05B
:104BB0000368D2B29A6201E00268916200684162C1
:104BC00070BD00000000FCFF7FB50024009401943C
:104BD00002940394FDF7FAFB01258DF80C501F2079
:104BE0008DF8080087218DF809108DF80D50684662
:104BF0008DF800508DF80A408DF80E408DF8014078
:104C000001948DF80B408DF80F40FDF7B1FB182192
:104C10008DF808108DF80C404FF050408DF8094089
:104C200003228DF80D408DF80150019068468DF8F3
:104C30000B208DF80E50FDF79BFB0420FDF7D4FBF5
:104C40007FBD000030B587B014216846FBF78EFBAE
:104C50001248016841F001010160016801F00101A1
:104C60000591016841F48071016000684FF480543F
:104C70000B4D002200F48070214605902846FDF778
:104C8000DBF9002100940120CDE9010128460391C0
:104C90006946FDF7B7F807B030BD0000E0440258A0
:104CA00000200258F0B50126144F04234FF0400CA9
:104CB00087B00221C0E900762025C0E902630561C2
:104CC000CD028E02C0F814C00022C0E908650C4D68
:104CD0004FF4C0770724C0E90672AA62CDE9001438
:104CE0000293CDE90341059106916946FEF736FF2F
:104CF000002800D0012007B0F0BD00004041005264
:104D0000DC1200201848002110B5164C0C224FF47C
:104D1000E1330460C0E90131C160C0E9041281617E
:104D2000C161016241628162FFF7C8F908B1FBF716
:104D300085FF0D480021FEF7CAFF08B1FBF77EFF93
:104D400009480021FEF79DFF08B1FBF777FF0648F1
:104D5000FEF775FF002803D0BDE81040FBF76EBFDB
:104D600010BD000000100140E40D0020FEE7FEE74A
:104D700070B50546C0680E4680470446E86880471F
:104D8000001BB042FAD3002070BD00002DE9FF5F88
:104D9000002391460F460646FE4C103019460090FF
:104DA000621C03F0EFFE032305460098FF21A4F5E3
:104DB000877203F0E7FE0023A21C19460544009801
:104DC00003F0E0FE0223FF2105440098A4F58A7257
:104DD00003F0D8FE0023A21C19460544009803F0F6
:104DE000D1FE0023E21CC4210544009803F0CAFE52
:104DF000054430460A21FFF7BBFF00230098221D1F
:104E0000194603F0BFFE0023621DC421054400982B
:104E100003F0B8FE054430460A21FFF7A9FF00233E
:104E20000098A21D194603F0ADFE0023E21DC52126
:104E30000544009803F0A6FE00230544009804F101
:104E40000802194603F09EFE04F109020023904671
:104E5000C5210544009803F095FE00230544009801
:104E600004F10A02194603F08DFE0023C021054417
:104E7000009804F10B0203F085FE0023621C194622
:104E80000544009803F07EFE0023D92105440098D4
:104E900004F10C0203F076FE00230544009804F1AF
:104EA0000D021946039203F06DFE0023C121054453
:104EB000009804F10E0203F065FE002304F10F02D6
:104EC000194605440098924603F05CFE0023C12178
:104ED0000544009804F1100203F054FE0023054439
:104EE000009804F11102194603F04CFE0023C5217D
:104EF0000544009804F1120203F044FE0023054427
:104F0000009804F11302194603F03CFE00234246C8
:104F1000C5210544009803F035FE0023621C1946A4
:104F20000544009803F02EFE0223D8210544009882
:104F3000A4F5897203F026FE00230544009804F1CD
:104F40001402194603F01EFE0023C52105440098F3
:104F500004F1150203F016FE00230544009804F145
:104F60001602194603F00EFE0023C02105440098E6
:104F700004F1170203F006FE00230544009804F133
:104F80001802194603F0FEFD0023C52105440098D0
:104F900004F1190203F0F6FD0023039A054400987A
:104FA000194603F0EFFD0023C4210544009804F1E5
:104FB0001A0203F0E7FD0023524605440098194603
:104FC00003F0E0FD0023C1210544009804F11B0219
:104FD00003F0D8FD00230544009804F11C02194693
:104FE00003F0D0FD0223B32105440098A4F5887294
:104FF00003F0C8FD0023A21C19460544009803F0E5
:10500000C1FD0623CE2105440098A4F5807203F06B
:10501000B9FD00230544009804F11D0219460292CF
:1050200003F0B0FD0E23CE2105440098A4F1DA026E
:1050300003F0A8FD00230544009804F11E02194660
:10504000019203F09FFD0E23CE2105440098A4F1A8
:10505000CC0203F097FD002304F11F02194605441A
:105060000098934603F08EFD0A23CF210544009853
:10507000A4F1BE0203F086FD002304F120021946CC
:1050800005440098924603F07DFD0023CF2105449E
:10509000009804F12D0203F075FD0023A21C1946AF
:1050A0000544009803F06EFD0A23CB2105440098C7
:1050B000A4F1B40203F066FD002304F121021946B5
:1050C00005440098904603F05DFD0F23CB21054475
:1050D0000098A4F1AA0203F055FD0023029A0544AA
:1050E0000098194603F04EFD0F23CB21054400988C
:1050F000A4F19B0203F046FD002305441946DDE9B7
:10510000000203F03FFD0A23CB2105440098A4F1DF
:105110008C0203F037FD00235A46054400981946D7
:1051200003F030FD0F23CB2105440098A4F1820247
:1051300003F028FD0023524605440098194603F069
:1051400021FD0F23CB2105440098A4F1730203F045
:1051500019FD00230544009804F12202194603F0CA
:1051600011FD0A23CB2105440098A4F1640203F049
:1051700009FD00230544009804F12302194603F0B9
:1051800001FD0A23CB2105440098A4F15A0203F043
:10519000F9FC01E0D81C0A080023A21C19460544AA
:1051A000009803F0EFFC0A23CC2105440098A4F1F9
:1051B000500203F0E7FC00234246054400981946DC
:1051C00003F0E0FC0F23CC2105440098A4F1460233
:1051D00003F0D8FC0023029A05440098194603F016
:1051E000D1FC0F23CC2105440098A4F1370203F031
:1051F000C9FC002305441946DDE9000203F0C2FCA6
:105200000A23CC2105440098A4F1280203F0BAFC3B
:1052100000235A4605440098194603F0B3FC0F23B7
:10522000CC2105440098A4F11E0203F0ABFC00233E
:10523000524605440098194603F0A4FC0F23CC21E4
:1052400005440098A4F10F0203F09CFC0023039A8C
:1052500005440098194603F095FC0023C521054438
:10526000009804F12E0203F08DFC00230544009801
:1052700004F12F02194603F085FC0023F5210544B3
:10528000009804F1300203F07DFC002305440098EF
:1052900004F13102194603F075FC0023C6210544D0
:1052A000009804F1320203F06DFC0023621C1946E1
:1052B0000544009803F066FC0323FF210544009891
:1052C000A4F20B1203F05EFC0023621C1946054495
:1052D000009803F057FC0023621C1946054400980F
:1052E00003F050FC1023E12105440098A4F1FA02D8
:1052F00003F048FC0023621C19460544009803F0A3
:1053000041FC1023E22105440098A4F1EA0203F0D5
:1053100039FC002311210544009804F1240203F014
:1053200031FC054430467821FFF722FD3C4E4FF01A
:10533000000867B1022F13D1009800233A2104F12D
:10534000250203F01FFC02217160054408E0354A84
:10535000002300983A2103F015FC0544C6F80480A8
:10536000B9F1010F40D0C6F8008000232D4A512129
:105370000098521C03F006FC2A4A0023C6F8088055
:105380005321921C0544009803F0FCFB254A00239E
:105390005521D21C0544009803F0F4FB214A002358
:1053A0005E21121D0544009803F0ECFB1D4A00230A
:1053B0002921521D0544009803F0E4FB0023621CE0
:1053C00019460544009803F0DDFB164A441900987D
:1053D0000023921D2C2103F0D5FB001901D04FF0C2
:1053E000FF3004B0BDE8F09F60208DF80400009805
:1053F0000023362101AA03F0C5FB0B4A04232A210E
:105400000544009803F0BEFB074A04232B21121D1C
:105410000544009803F0B6FB012131600544A4E780
:1054200038100020FE1C0A08D01B0A0830B40446BD
:105430000088A468A44630BC604700004FF000021A
:1054400060B14B6843608B688360C968C16005497F
:105450004161054901618061104670474FF0FF329C
:10546000FAE700002D5400086D54000830B40446DB
:1054700000886468A44630BC604770472DE9F04757
:10548000454D044689464FF0000A2868C04380070E
:105490000AD0414E283E306820F080603060FCF732
:1054A000D7FD0746B04608E00120BDE8F08700BF01
:1054B000FCF7CEFDC01B022867D8D8F80000000119
:1054C000F6D4206829684FF4FE0721F47C313E02AF
:1054D00041EA00302860207AA389B4F804C0400271
:1054E0002D4D2D495B1E227CACF1010C1035091DA0
:1054F000A0F5007080B2521ECCF3080C07EA0343FB
:1055000040EA0C00184306EA02621043286008686B
:10551000626920F0C000104308600A68A06922F0A8
:10552000200202430A60281D0A6822F010020A6065
:1055300002684FF6F873E4699A4342EAC4020260D3
:105540000868B9F1000F40F010020A6011D0086835
:10555000B9F1010F11D040F400100860D8F8000034
:10556000444640F08060C8F80000FCF771FD054635
:105570000DE0086840F40020EFE740F48010ECE70D
:10558000FCF766FD401B022801D903208DE7206847
:105590000001F5D5504688E7284402582DE9F04728
:1055A000454D044689464FF0000A2868C0438007ED
:1055B0000AD0414E283E306820F080503060FCF721
:1055C00047FD0746B04608E00120BDE8F08700BF70
:1055D000FCF73EFDC01B022867D8D8F80000800009
:1055E000F6D4208829684FF4FE0721F07C713E0232
:1055F00041EA00502860207AA389B4F804C0400230
:105600002D4D2D495B1E227CACF1010C1835091D76
:10561000A0F5007080B2521ECCF3080C07EA0343D9
:1056200040EA0C00184306EA02621043286008684A
:10563000626920F44060104308600A68A06922F49F
:10564000007202430A60281D0A6822F480720A6010
:1056500002684FF6F873E4699A4342EAC4020260B2
:105660000868B9F1000F40F480720A6011D0086830
:10567000B9F1010F11D040F080700860D8F8000037
:10568000444640F08050C8F80000FCF7E1FC0546B5
:105690000DE0086840F48000EFE740F40000ECE71C
:1056A000FCF7D6FC401B022801D903208DE72068B7
:1056B0008000F5D5504688E7284402585049F0B597
:1056C0000446086887B040F480500860086800F419
:1056D00080500590086840F001000860086848495B
:1056E00000F0010005900C31086840F008000860E7
:1056F000086800F008000590086840F01000086095
:10570000086800F010000590086840F0200008606C
:10571000086800F020000590086840F0400008602C
:10572000086800F040000590086840F080000860BC
:10573000086800F080000590086840F480700860F8
:1057400008680221012200F48070059003234CF2C6
:1057500003700C258DE82F002A486946FCF752FBA0
:105760004FF68370009028486946FCF74BFB4FF6D4
:105770003F00009025486946FCF744FB48F237108B
:10578000009023486946FCF73DFB4FF6E07000901F
:1057900020486946FCF736FB40F2FF6000901E4847
:1057A0006946FCF72FFB1D49802240F20227D505F0
:1057B00053054D602025BE00C1E90232C1E90665EE
:1057C0000020174D9304C1E90407C8620863C1E9CA
:1057D000082348630D608A628863084621630C646D
:1057E000FCF76CFD0D48FCF794FD00220F217A2098
:1057F000FCF728FE7A20FCF717FE07B0F0BD00008A
:10580000D4440258000C02580010025800140258E8
:1058100000180258001C02580020025804120020F0
:105820004000005201F02ABC7047FCF731BC000078
:1058300070B59CB04C216846FAF798FD202113A85A
:10584000FAF794FD2D20FCF72FFE21480024214972
:10585000026842F44042026002680A6842F00102B3
:105860000A60096801F001011B9101688904FCD5F7
:105870000DF1280C022009900521C0228CE80700B8
:10588000C6030F9008250D9001230E90CDE910540A
:10589000CDE9003668461294FDF79EFE08B172B657
:1058A000FEE740201A903F210301CDE91650032264
:1058B000CDE9180313AB13A883E816000421FDF704
:1058C0007BFC002801D072B6FEE71CB070BD000062
:1058D000184802582C0400583348F0B53249036880
:1058E0007839324A43F470030360086840F01000CE
:1058F0000860106800F00F00072804D2106820F03C
:105900000F00C01D10602A490020294C10340B687C
:10591000284D43F001030B6020600B682B400B60A7
:10592000136803F00F03072B04D9136823F00F0348
:10593000DB1D13601E4C204A1834204B261D371DDA
:1059400020601B4C1E4D28343060261D3860371DEA
:1059500023603B1D35601C1D3A60251D2E1D1860FF
:10596000331D22602860326018600B684FF0B0422F
:105970000F4C23F480230B6060342060D2F8E400E5
:10598000104940F48040C2F8E40008686FF30F004B
:10599000B0F1005F03D20C490120C1F8080143F2C5
:1059A000D2000A490860F0BD88ED00E000200052F6
:1059B000004402587FEDF6EA800201010002020273
:1059C0000000FF010010005C008000510040005208
:1059D00030B5416EB9B101680D4B03F108048A6816
:1059E0008968C2F34262490F5D5C615C2D01B5FBC1
:1059F000F1F1A0F86A10995CA25C0901B1FBF2F127
:105A0000A0F8681030BD0121A0F86A10F8E7000086
:105A1000A41B0A0890F82810090706D50168836BB3
:105A20004A6822F400421A434A6090F82810C907D5
:105A300006D00168C36A4A6822F400321A434A60F9
:105A400090F82810890706D50168036B4A6822F48C
:105A500080321A434A6090F82810490706D5016839
:105A6000436B4A6822F480221A434A6090F8281057
:105A7000C90606D50168C36B8A6822F480521A43AE
:105A80008A6090F82810890606D50168036C8A6838
:105A900022F400521A438A6090F82810490611D562
:105AA0000168436C4A6822F480121A434A60416CD0
:105AB000B1F5801F06D10168836C4A6822F4C002E8
:105AC0001A434A6090F82810090606D50168C26C8E
:105AD000486820F400201043486070472DE9F843DF
