:020000040810E2
:1000000018040010AD0210088506100881061008BB
:1000100083061008FD021008AD061008000000005D
:100020000000000000000000000000008906100829
:10003000FF02100800000000870610088B06100859
:10004000CB021008CB021008CB021008CB0210081C
:10005000CB021008CB021008CB021008CB0210080C
:10006000CB021008CB021008CB021008CB021008FC
:10007000CB021008CB021008CB021008CB021008EC
:10008000CB021008CB021008CB021008CB021008DC
:10009000CB021008CB021008CB021008CB021008CC
:1000A000CB021008CB021008CB021008CB021008BC
:1000B000CB021008CB021008CB021008CB021008AC
:1000C000CB021008CB021008CB021008CB0210089C
:1000D000CB021008CB021008CB021008CB0210088C
:1000E000CB021008CB02100800000000CB02100861
:1000F000CB021008CB021008CB021008CB0210086C
:10010000CB021008CB021008CB021008CB0210085B
:10011000CB021008CB021008CB021008CB0210084B
:10012000CB021008CB021008CB021008CB0210083B
:10013000CB021008CB021008CB021008CB0210082B
:10014000CB021008CB0210080000000000000000E5
:10015000CB021008CB021008CB021008CB0210080B
:10016000CB021008CB021008CB021008CB021008FB
:10017000CB021008CB021008CB02100800000000D0
:10018000CB021008CB021008CB021008CB021008DB
:10019000CB021008CB021008CB021008CB021008CB
:1001A000CB021008CB021008CB021008CB021008BB
:1001B000CB021008CB021008CB021008CB021008AB
:1001C000CB021008CB021008CB021008CB0210089B
:1001D000CB021008CB021008CB021008CB0210088B
:1001E000CB021008CB021008CB021008CB0210087B
:1001F000CB021008CB021008CB021008CB0210086B
:10020000CB021008CB021008CB021008CB0210085A
:10021000CB021008CB021008CB021008CB0210084A
:10022000CB021008CB021008CB021008CB0210083A
:10023000CB021008CB021008CB021008CB0210082A
:10024000CB021008CB021008CB021008CB0210081A
:10025000CB021008CB021008CB021008CB0210080A
:10026000CB021008CB021008CB021008CB021008FA
:10027000CB021008CB021008CB021008CB021008EA
:10028000CB021008CB021008CB02100800000000BF
:10029000CB021008CB021008DFF80CD000F01CF8DD
:1002A00000480047ED061008180400100748804772
:1002B0000748804707480047FEE7FEE7FEE7FEE7FE
:1002C000FEE7FEE7FEE7FEE7FEE7FEE701031008B4
:1002D0009106100899021008064C074D06E0E068E8
:1002E00040F0010394E8070098471034AC42F6D37D
:1002F000FFF7D6FF5407100874071008FEE7704791
:100300007047000004480068C0F30310072801D0BC
:10031000012070470320704700ED00E002490A68A1
:1003200002430A6070470000106502580248816865
:100330000278114481607047000000101C4808B525
:10034000016841F480410160006800F48040009041
:1003500018480168184A114041F4014101600168E0
:1003600041F001010160032000F07CF800F0DCF8AE
:100370000F49C0390A680968C2F303230F4AD35CE6
:1003800003F01F03D84001F00F01515C01F01F0181
:10039000C8400B4908600B490860002000F014F8C1
:1003A00008B1012008BD00F02FF8002008BD0000B2
:1003B000D844025800440240FF00F0FF44071008F0
:1003C000100000100C00001070B50D4D0446287888
:1003D000A0B14FF47A71B1FBF0F00A490968B1FBA2
:1003E000F0F000F039F948B9102C07D2002221466C
:1003F000501E00F017F800206C6070BD012070BD29
:10040000000000100C000010054808B5016841F01C
:1004100002010160006800F00200009008BD0000C9
:10042000F4440258F0B40E4B1B680C46C3F302238D
:10043000C3F10705042D00D90425191D072901D290
:10044000002300E0DB1E012606FA05F1491E2140CB
:1004500099409E40761E16403143F0BC00F027B90B
:100460000CED00E0064900F0070208684FF6FF03B4
:10047000184040EA0220034A104308607047000019
:100480000CED00E00000FA0510B5FFF73BFF032874
:1004900000D040BF20BF10BD2DE9F0410F462049DC
:1004A0000B6823F0010303430B601D4D1D4C1035F9
:1004B00062B12E1D012A17D0FFF724FF032829D08F
:1004C000306820F004003060BDE8F081FFF71AFFCB
:1004D0000328F9D1286820F0010028600CE020688A
:1004E00020F004002060EFE7FFF70CFF0128EBD1BC
:1004F000306820F002003060206840F00400206086
:10050000BFF34F8FBFF36F8F012F01D020BFE6E7FE
:1005100030BFE4E7286820F004002860D4E700003A
:100520000048025810ED00E030B543480068444BE5
:1005300010F03802414808D00111082A03D0102ACF
:100540000BD0182A0BD0084630BD19688906FBD598
:100550001968C1F3C101C84030BD3A4830BD3649C1
:1005600018310A68096802F00304334AC1F305111F
:100570001C321268304D02F0010224352D68C5F39B
:10058000CC0515FB02F200EE102AB8EE400AE9B3E2
:10059000294A9FED2D1AF7EE000A203264B1DFEDF3
:1005A0002B1A012C01D0022C3CD002EE101AF8EECE
:1005B000422A81EEA22A17E01C68A4060CD51B680B
:1005C000C3F3C103D84001EE900AF8EE612A01EEB0
:1005D000901AF8EE611A05E001EE901ADFED1C2A80
:1005E000F8EE611A82EEA12A1068C0F3080001EE4D
:1005F000900A1068F8EE611A40EE011A31EEA00A76
:1006000022EE000AC0F34620401C00E011E000EE9C
:10061000900AF8EE600A80EE201ABCEEC10A10EED5
:10062000100A30BD01EE901ADFED0A2AF8EE611AC9
:10063000D8E7002030BD0000104402580090D003DD
:100640000044025840787D01000000390024744ABB
:100650000024744C20BCBE4B10B5401EB0F1807F0E
:1006600001D3012010BD4FF0E02460610F2160171D
:1006700000F01DF80020A06107202061002010BDBF
:10068000FEE7FEE7FEE770477047FFF74FBE00004A
:100690000548016841F47001016003487838016839
:1006A00041F010010160704788ED00E0FEE70907A6
:1006B000090E002804DB00F1E02080F800147047E8
:1006C00000F00F0000F1E02080F8141D704702E0F8
:1006D00008C8121F08C1002AFAD1704770470020CD
:1006E00001E001C1121F002AFBD17047124808B572
:1006F000016841F000710160006800F00070009036
:100700000120FFF70BFEFFF7BFFE012202210020B0
:10071000FFF7C2FE09480068C0F30310072807D09E
:100720000748016841F001010160FFF707FEFEE79D
:1007300003481038F5E70000E044025800ED00E0FF
:1007400014650258000000000102030401020304C2
:1007500006070809740710080000001014000000C4
:10076000CE061008880710081400001004040000CA
:10077000DE0610080100000010000000000000006C
:080780000090D0030090D003AB
:040000050810029944
:00000001FF
